:020000040800F2
:10000000603E002045010008A3120008750C00089E
:10001000A1120008F90A0008811A00080000000077
:1000200000000000000000000000000011150008A2
:10003000190B0008000000001D130008BD15000882
:100040005F0100085F0100085F0100085F01000810
:100050005F0100085F0100085F0100085F01000800
:100060005F0100085F0100085F0100085F010008F0
:100070005F0100085F0100085F0100085F010008E0
:100080005F0100085F0100085F0100085F010008D0
:100090005F0100085F0100085F0100085F010008C0
:1000A0005F0100085F0100085F0100085F010008B0
:1000B000891600085F0100085F0100085F01000861
:1000C0005F0100085F0100085F0100085F01000890
:1000D0005F010008FD170008091800085F0100080B
:1000E0005F0100085F0100085F0100085F01000870
:1000F0005F0100085F0100085F0100085F01000860
:100100005F0100085F0100085F0100085F0100084F
:100110005F0100085F0100085F0100085F0100083F
:100120005F0100085F0100085F0100085F0100082F
:10013000DFF80CD000F046FB00480047A12C000877
:10014000603E00200648804706480047FEE7FEE77D
:10015000FEE7FEE7FEE7FEE7FEE7FEE7FEE7FEE777
:10016000391600083101000840EA01039B0703D05B
:1001700009E008C9121F08C0042AFAD203E011F8E6
:10018000013B00F8013B521EF9D27047D2B201E0A8
:1001900000F8012B491EFBD270470022F6E710B58C
:1001A00013460A4604461946FFF7F0FF204610BDE5
:1001B00030B505462A460B4612F8010B13F8014BE1
:1001C00008B1A042F8D01CB1002802D06D1CF1E7A4
:1001D000284630BD421C10F8011B0029FBD1801AB3
:1001E000704730B504460020034600E05B1C934294
:1001F00003D2E05CCD5C401BF8D030BD2DE9FE4F52
:10020000804681EA0300C00F0C46009021F00041B7
:1002100023F00045B8EB0200A94105D24046214633
:1002200090461C460B46024623F00040104347D040
:10023000270DC7F30A00C3F30A510290401A019038
:1002400040286BDAC3F3130040F4801B00989246F9
:1002500020B10023D2EB030A63EB0B0B0198594644
:10026000C0F14002504600F0E6F806460D46504602
:100270005946019A00F0EEF810EB080061410024A5
:1002800087EA115284EAE7731A4340D0009A62B3B6
:10029000019A012A4FEA075215DC001B61EB0201AB
:1002A0004FF0004202EA0752CDE90042001C41F53E
:1002B000801132462B4600F025F903B0BDE8F08FDF
:1002C00040462146F9E7001B61EB0201001C41F5A5
:1002D000801300185B412018A2F5001747EB0301BB
:1002E00040EAD570B6196D4111E06D084FEA360647
:1002F00045EAC0754FEA0752001B61EB0201001C82
:1003000041F5801149084FEA300000195141324649
:100310002B4603B0BDE8F04F00F0E5B8009801228D
:1003200040000023D0EB020263EBE073009821460B
:100330004FEAE074B8EB000061EB0401E9E783F0F9
:1003400000435BE781F0004158E700F0004230F0E5
:1003500000400AD0C10D01F56071C0F3160042EAF9
:100360000151C20840071143704700200146704701
:1003700001F0004330B421F0004150EA010206D000
:100380000A0DA2F56072C1F31301002A02DC30BC31
:1003900000207047440F44EAC104C100E01830BC9B
:1003A00000EBC25000F068B830B50B4601460020A3
:1003B0002022012409E021FA02F59D4205D303FA27
:1003C00002F5491B04FA02F52844151EA2F10102A8
:1003D000F1DC30BD2DE9F05F0546002092469B46DA
:1003E00088460646814640241BE02846414647464B
:1003F000224600F0F9F953465A46C01A914110D3EB
:1004000011461846224600F016F82D1A67EB01082F
:100410004F4622460120002100F00DF817EB00099D
:100420004E41201EA4F10104DFDC484631462A4635
:100430004346BDE8F09F202A04DB203A00FA02F18F
:10044000002070479140C2F1200320FA03F31943C2
:1004500090407047202A06DBCB17203A41FA02F081
:1004600043EAE07306E041FA02F3D040C2F1200211
:1004700091400843194670470029A8BF7047401CA7
:10048000490008BF20F00100704710B4B0FA80FCAA
:1004900000FA0CF050EA010404BF10BC704749B1E7
:1004A000CCF1200421FA04F411FA0CF118BF012157
:1004B00021430843A3EB0C01CB1D4FEA00614FEA37
:1004C000102042BF002010BC704700EBC350104406
:1004D0000029A4BF10BC7047401C490008BF20F091
:1004E000010010BC704710B5141E73F1000408DA47
:1004F000401C41F1000192185B411A4301D120F0E8
:10050000010010BD2DE9F04D92469B4611B1B1FAA4
:1005100081F202E0B0FA80F220329046FFF78BFFC2
:1005200004460F4640EA0A0041EA0B0153465A4688
:10053000084313D0114653EA010019D0C8F1400214
:10054000504600F051F905460E465046594642467F
:10055000FFF771FF084305D0012004E0204639462B
:10056000BDE8F08D0020054346EAE0762C43374392
:100570000A986305E40AA0EB08000022FD0A44EA99
:1005800047540A3002D500200146E9E70105101959
:100590006941DDE9084500196941BDE8F04DA2E770
:1005A0002DE9FE4F81EA030404F0004421F00041EC
:1005B00000944FF0000B23F0004350EA01045ED09A
:1005C00052EA03045BD0C3F30A54C1F30A552C4426
:1005D000A4F2F3340194A0FB0254C1F3130141F4DB
:1005E0008011C3F3130343F4801301FB024400FBA7
:1005F000034E840A970A44EA815447EA8357A4FBCE
:10060000076802958D0A05FB07854FEA932C04FBCA
:100610000C542705029D4FEA065847EA1637B5EBFA
:1006200008056EEB070C870E920E47EA811742EA27
:100630008312A7FB0201B6EB0B0164EB00042B0D48
:1006400043EA0C335E1844EB1C50DA465146E7FB94
:100650000201C5F313044FEA0B3343EA14534FEA84
:100660000432019C43EA0603A4F10C040294009CAA
:10067000CDE900B4FFF746FF03B0BDE8F08F0020DE
:100680000146F9E72DE9F04D81EA030404F0004B3F
:1006900021F0004514464FF0000A23F0004150EAD3
:1006A000050220D054EA01021DD0C5F30A570246C4
:1006B000C5F31303C1F31300C1F30A5640F48015C8
:1006C00043F48013A7EB0608101BD64608F2FD384A
:1006D00073EB050002D308F1010801E092185B41B9
:1006E000B8F1000F03DA00200146BDE8F08D0020CC
:1006F0004FF48011064684460EE0171B73EB050786
:1007000005D3121B63EB050306434CEA010C4908B1
:100710004FEA300092185B4150EA0107EDD152EAEE
:10072000030012D082EA040083EA0501084305D0E1
:10073000101BAB4106D20122002306E000224FF03D
:10074000004302E06FF0010253101AEB06004CEB7D
:10075000085110EB0A0041EB0B01BDE8F04DFFF72B
:10076000C2BEC1F30A52C1F3130140F2FF3341F498
:1007700080119A4202DA00200146704740F233436A
:100780009A42A2F2334202DC524200F02DB8FFF747
:1007900052BE000030B5041E71F1000404DB4FF0BE
:1007A0000044404264EB0101141E73F1000405DBB8
:1007B0001C464FF00043524263EB0403994208BFCA
:1007C000904230BD064C074D06E0E06840F0010362
:1007D00094E8070098471034AC42F6D3FFF7ACFC1E
:1007E0002033000840330008202A04DB203A21FA95
:1007F00002F00021704721FA02F3D040C2F120023A
:10080000914008431946704770B58C1810F8015B89
:1008100015F0070301D110F8013B2A1106D110F899
:10082000012B03E010F8016B01F8016B5B1EF9D19D
:100830002B0705D40023521E0DD401F8013BFAE723
:1008400010F8013BCB1A921C03E013F8015B01F88E
:10085000015B521EF9D5A142D8D3002070BD000023
:100860002DE9F047A2B00F468146002592462C465E
:1008700080216846FFF791FC26485146D0E9006088
:100880008046032002F04CF9032001F035FF18B137
:10089000002022B0BDE8F08720A9012002F08FF9E6
:1008A0000028F1D09DF8800000F089F99DF88000C3
:1008B0000DF805006D1CADB20A28E5D131460722BE
:1008C0006846FFF78EFC70B1414607226846FFF785
:1008D00088FC60B100256846FFF77CFC014668464D
:1008E000FFF75BFCD0E7002038800120D1E76420CF
:1008F00001F014FF20A9012002F061F930B19DF848
:10090000801009F80410641CA4B2F0E73C800220B7
:10091000BFE70000AC30000838B500208DF80000BB
:100920004FF47A742346052212A113A000F0C4F8F4
:1009300041F28831684600F073F89DF800100FA06E
:1009400001F0A0F8234605220AA10FA000F0B4F898
:100950002346052207A10FA000F0AEF8234605228A
:1009600004A113A000F0A8F80446012002F016F933
:10097000204638BD4F4B00004154000043535120E6
:100980003A25640D0A00000041542B43474154545A
:100990003D31000041542B434744434F4E543D31B9
:1009A0002C224950222C22636D6D746D22000000B0
:1009B00041542B43474143543D312C31000000004A
:1009C00010B5FFF7A9FF18B1BDE8104000F086B9D7
:1009D00003A001F057F80AA001F054F8FEE7000068
:1009E00020414D3930304520526573706F6E73650C
:1009F000206661696C7572652020200A2000000065
:100A000020414D393030452073797374656D205223
:100A10006573776574202E2E2E20200D0A2000008D
:100A2000F0B5A1B00F460546002420A680216846F7
:100A3000FFF7B3FB1EA000F0C7F83946032002F011
:100A40006FF86F46032001F057FE10B1002021B06F
:100A5000F0BD20A9012002F0B2F80028F2D09DF8E4
:100A6000800000F0ACF89DF880003855641CA4B2FA
:100A70000A28E7D131466846FFF79AFB78B18178BA
:100A80003039C9B22970C0782C2806D001EB810119
:100A9000D02202EB4101084428700120D7E700244E
:100AA00080216846FFF779FBCCE700003A20000080
:100AB00041542B43535100002DE9F0471F461400C9
:100AC000884681464FF0000600D10124641EE4B23E
:100AD000484600F079F800253946404600F08AF88B
:100AE00010B10120BDE8F0876D1CEDB2052DF3D3E8
:100AF000002CEBD13046F5E7FEE7000018B10128E5
:100B000003D0002070470248704702487047000039
:100B1000CC030020F40B002070470000F0B5CA7829
:100B2000002502F00F03D20601D58A7813430A7814
:100B30004FF00F0E12F0FF0F4FF001021CD00468AF
:100B40000F8802FA05F63740B74211D14FEA850CFB
:100B50000EFA0CF724EA070703FA0CF43C43CF78AB
:100B6000282F02D0482F02D002E0466100E0066143
:100B70006D1C082DE4D304600C88FF2C1ED944683A
:100B80005FF0000606F1080702FA07F50F882F400C
:100B9000AF420FD14FEA860C0EFA0CF7BC4303FAB2
:100BA0000CF73C43CF78282F00D14561CF78482FF0
:100BB00000D10561761C082EE4D34460F0BD0146E7
:100BC000002002F05FB8000010B50446012001F0DB
:100BD000E5FF2046FFF7FEFA82B22146012002F02F
:100BE00014F80122BDE8104001A1104602F00DB832
:100BF0000D000000F0B5C1B00E4607460024FFF717
:100C0000E9FA0546FF280CD876B13146032001F0F9
:100C100087FF00BF01F0F0FD46B1032001F06CFD3D
:100C200020B1002041B0F0BD01F0E6FD40A9012057
:100C300001F0C5FF0028EDD09DF80001FFF7BFFFD0
:100C40009DF800010A2808D0FF2CE3D82028E1D322
:100C50000DF80400641CA4B2DCE7002CDAD02A46AC
:100C600039466846FFF7BDFA08B10024D2E70120F3
:100C7000D8E70000174B00200BA11A1F0C5C1C804A
:100C800014886406FCD5401CC0B22A28F6D3124949
:100C900042F21072086880F4807008600020401CE6
:100CA00080B29042FBD3F5E70D0A456E7465722061
:100CB000486172644661756C745F48616E646C650E
:100CC000722C2053797374656D2048616C742E0DFD
:100CD0000A000000043801400C08014030B585B01E
:100CE0002B4C2CA334A237A138A0009400F0ECFFC9
:100CF00031A102917820CDE9034032A233A0CDE9A1
:100D0000000236A337A23B49A4F5806000F0CAFE7A
:100D100041F288342346052237A13F48FFF7CCFE35
:100D2000642001F0FBFC012001F038FF4FF48065E6
:100D300029463948FFF731FA38480022364902601F
:100D4000426002618260C0E9052201F083F8234617
:100D5000052233A13048FFF7AFFE29462E48FFF7A2
:100D60001CFA642001F0DAFC012001F017FF234691
:100D7000052232A13CA0FFF79FFE0446642001F04B
:100D8000CDFC012001F00AFF05B0204630BD000077
:100D90001C1E00207A713945584F334C686939441C
:100DA00063495645497A794F32785474556F447582
:100DB00042366436000000006131324A376F4C56CB
:100DC0004D70460064657630320000004645534160
:100DD0003233344642445332350000003138383320
:100DE00000000000223231382E31312E302E3634C0
:100DF00022000000F4310008434F4E4E41434B2087
:100E000073657373696F6E2070726573656E74209D
:100E1000302C2072632030001C1A0020200000209B
:100E20005055425245432064757020302C2070612B
:100E3000636B6574206964203300000053554241A0
:100E4000434B207061636B657420696420312063BB
:100E50006F756E742031206772616E7465642071E5
:100E60006F7320310000000041542B4D51545453F6
:100E700055423D312C312C312C222F6131324A37F1
:100E80006F4C564D70462F64657630322F75736502
:100E9000722F676574222C30000000002DE9F04F9E
:100EA00085B00121052000F0DFFA0121880300F060
:100EB000DBFA4FF40070ADF8100018258DF81350D0
:100EC00003268DF8126004A93A48FFF727FE4FF475
:100ED0008060ADF8100048278DF8137004A93548DC
:100EE000FFF71CFE0024DFF8D0A04FF4E138ADF886
:100EF0000440ADF808404FF00C09CDF80080ADF883
:100F00000640ADF80C40ADF80A906946504600F036
:100F1000C5FC40F2255B01225946504600F0A6FC74
:100F20000121504600F079FC4021504600F072FC4F
:100F30000121052000F098FA0121480400F088FA08
:100F40000420ADF810008DF813508DF8126004A93C
:100F50001848FFF7E3FD0820ADF810008DF8137076
:100F600004A91448FFF7DAFD04A91248FFF7D6FDDB
:100F7000ADF80440ADF80640ADF80840ADF80C40BF
:100F80000E4CCDF80080ADF80A906946204600F07E
:100F900085FC01225946204600F068FC01212046CC
:100FA00000F03BFC4021204600F034FC05B0BDE8D9
:100FB000F08F00000008014000380140004400406C
:100FC00007488068800409D406480068C00705D136
:100FD00005488068C00501D5012070470020704792
:100FE00000100140080801400020014007488068C7
:100FF000800409D506480068C00705D00548806808
:10100000C00501D401207047002070470010014046
:10101000080801400020014007488068800409D585
:1010200006480068C00705D005488068C00501D59E
:10103000012070470020704700100140080801405F
:101040000020014007488068800409D506480068F0
:10105000C00705D105488068C00501D4012070474C
:1010600000207047001001400808014000200140A6
:1010700003488068000401D40120704700207047B5
:101080000020014003480068000701D40120704798
:10109000002070470814014003488068400401D4D0
:1010A00001207047002070470020014003488068FD
:1010B000800401D4012070470020704700200140C7
:1010C00003488068000601D4012070470020704763
:1010D0000020014007488068800409D40648006861
:1010E000C00705D005488068C00501D501207047BC
:1010F0000020704700100140080801400020014016
:10110000A6B00446802105A8FFF747F8324884427C
:1011100000D944102146022001F0C2FC4FF47A7538
:1011200041F28836022001F0E7FA28B32B4C206800
:10113000FFF70BF92A4A2B4BFFF760F8FFF718F976
:101140002060002060602061A060C4E9050026499D
:10115000204600F07FFE3346052224A12248FFF7F7
:10116000ABFC4FF480612048FFF717F8642001F0D2
:10117000D5FA012001F012FD2A4625A905A8FFF79E
:101180006FFBC0B2012806D00228CBD105A91EA052
:1011900000F078FCC6E7204C20A329A22BA12DA0AB
:1011A000009400F091FD26A102917820CDE9034042
:1011B00026A228A0CDE900022AA32CA22F490A4882
:1011C00000F070FC334605222DA10748FFF774FCA0
:1011D0000028A7D1FEE70000C0D4010020000020B5
:1011E0009A9999999999B93F1C1A002050554252E1
:1011F00045432064757020302C207061636B6574EA
:1012000020696420330000005F704D73674275668B
:101210003A25730D0A0000001C1E00207A71394522
:10122000584F334C6869394463495645497A794F78
:1012300032785474556F44754236643600000000AD
:101240006131324A376F4C564D70460064657630D6
:101250003200000046455341323334464244533253
:1012600035000000313838330000000022323138B8
:101270002E31312E302E363422000000F431000899
:10128000434F4E4E41434B2073657373696F6E201D
:1012900070726573656E7420302C2072632030008C
:1012A000FEE7704770B50F23C47801780122F4B1CE
:1012B000144C2468457804F4E064C4F5E064240A1E
:1012C000C4F10406E3408478B5401C402C4301F18E
:1012D000E021230181F80034007800F01F018A40EA
:1012E0004009800000F1E020C0F8002170BD01F04D
:1012F0001F0082404809800000F1E020C0F88021F2
:1013000070BD00000CED00E002490843024908608E
:10131000704700000000FA050CED00E07047000087
:1013200010B50EA000F0AEFB0DA000F0ABFB1CA1B1
:101330001EA000F0A7FB24A124A000F0A3FB2AA17B
:101340002CA000F09FFB01230622032130A000F017
:1013500099FBBDE8104002A000F094BB0A0D00000C
:101360002A2A2A2A2A2A2A2A2A2A2A2A2A2A2A2ADD
:101370002A2A2A2A2A2A2A2A2A2A2A2A2A2A2A2ACD
:101380002A2A2A2A2A2A2A2A2A2A2A2A2A2A2A2ABD
:101390002A2A2A2A2A2A2A2A2A2A2A2A2A0D0A0014
:1013A0004C774D324D207465737400002A20526FC3
:1013B0007574696E65206E616D65202020203A206D
:1013C00025730D0A00000000312E30002A20526FD4
:1013D0007574696E652076657273696F6E203A2048
:1013E00025730D0A00000000323031392D30382DC0
:1013F000303100002A207075626C69736820646166
:101400007465202020203A2025730D0A000000007A
:101410002A2048617264776172652076657273690B
:101420006F6E3A205625642E25642E25642028539D
:10143000544D3332463130785F537464506572696D
:1014400070685F447269766572290D0A00000000B9
:10145000044A0029D16901D0014300E08143D161F0
:101460007047000000100240044A0029916901D031
:10147000014300E081439161704700000010024089
:1014800030B51F494A6812F00C031E4A03D0042BE2
:1014900001D0082B21D002604A680F231A4C03EABE
:1014A0001212A35C0268DA4042604B68072505EA25
:1014B0001323E35C22FA03F383604B6805EAD3232A
:1014C000E35CDA40C2604968032303EA9131231FD9
:1014D000595CB2FBF1F1016130BD4A684B6802F41E
:1014E00070124FF0020413F4803F04EB924202D0DA
:1014F0004B689B0301D5054B00E0024B5A43CAE7FA
:101500000010024000127A00C402002000093D00D1
:10151000704700000CB50021264801910091026837
:1015200042F4803202604FF4A063026802F4003299
:101530000092019A521C0192009A12B9019A9A42A1
:10154000F3D10268920333D5012100911A490A6848
:1015500042F010020A600A6822F003020A600A6878
:1015600042F002020A60416841604168416041689E
:1015700041F480614160416821F47C11416041681F
:1015800041F4E8114160016841F080710160016837
:101590008901FCD5416821F003014160416841F0B7
:1015A000020141604168C1F381010229FAD10CBDF9
:1015B00000910CBD0010024000200240AFF30080FB
:1015C00070B51B4C6068012220B16068401E6060ED
:1015D00000D12270174B002101EB410003EB80008A
:1015E00045684DB145686D1E456005D1427005786E
:1015F000012D01D185684560491CC9B20429EBD38E
:10160000A068401CA060A0686FF0004100258842DF
:1016100000D1A56001F042FA6078401CC0B2607051
:101620000A2804D36570BDE8704001F035BA70BD7A
:10163000000000209C0300200F4810B5016841F015
:101640000101016041680D4A1140416001680C4A86
:1016500011400160016821F480210160416821F49A
:10166000FE0141604FF41F018160FFF753FF054900
:101670004FF00060086010BD001002400000FFF84D
:10168000FFFFF6FE08ED00E070B502214C07204692
:1016900000F051F8204D50B10221204600F03EF8F4
:1016A00000220221204600F052F8E8688047042119
:1016B000204600F040F850B10421204600F02EF8FA
:1016C00000220421204600F042F8286980470821C2
:1016D000204600F030F850B10821204600F01EF8F6
:1016E00000220821204600F032F868698047102166
:1016F000204600F020F800280CD01021204600F0F1
:101700000DF800221021204600F021F8A869BDE85C
:101710007040004770BD000000000020C9430182F6
:1017200070470029018802D041F0010101E021F059
:1017300001010180704702460020138A92890B4202
:1017400002EA010202D0002A00D001207047002ADC
:10175000828901D00A4300E08A43828170470000F9
:1017600030B502881B4B1C4C98420DD0A0420BD0C8
:10177000B0F1804F08D0194DA84205D0184DA842AD
:1017800002D0184DA84203D122F070054A882A439E
:10179000154DA84206D0154DA84203D022F440753D
:1017A000CA882A4302808A8882850A8802859842EC
:1017B0000AD0A04208D00E4A904205D00D4A90426D
:1017C00002D00D4A904201D1097A0186012181821D
:1017D00030BD0000002C01400034014000040040F6
:1017E00000080040000C00400010004000140040C1
:1017F000004001400044014000480140014800F021
:10180000ABB80000CC030020014800F0A5B80000F0
:10181000F40B0020C943018070470029818902D060
:1018200041F4005101E021F400518181704730B54D
:1018300001F01F0201240025C1F3421304FA02F251
:10184000012B0FD0022B0FD0838A4FEA1121008881
:10185000134204FA01F400EA040001D000B10125AA
:10186000284630BD8389F0E7038AEEE710B5C1F35F
:10187000421301F01F040121A140012B07D0022BCC
:1018800007D01430002A026805D00A4304E00C3067
:10189000F8E71030F6E78A43026010BD30B5044621
:1018A000008A85B00D464CF6FF710840E988014377
:1018B0002182A1894EF6F3100140A8882A8910439D
:1018C0006A890A431043A081A08A4FF6FF4108406D
:1018D000A9890143A1826846FFF7D2FD19488442D5
:1018E00001D1039800E00298A189090400EBC0012E
:1018F00001EB0010296801D5490000E08900B0FB28
:10190000F1F06422B0FBF2F109010B096FF0180548
:101910006B4300EB8300A3891D044FF0320306D50F
:1019200003EBC000B0FBF2F000F0070005E003EBB2
:101930000010B0FBF2F000F00F000843208105B06A
:1019400030BD0000003801408088C0F308007047B7
:10195000C1F30801818070472DE9F0410446006819
:1019600040F22551FFF763FF0025B8B12068FFF76B
:10197000EBFFE28AA168C0B28854E18A491C8AB2AE
:10198000E282E1898A4200D3E582628B8A4202D2F6
:10199000618B491C6183616A01B1884740F22777F6
:1019A00039462068FFF743FF40F2266690B1A08ACF
:1019B000C0B9002239462068FFF758FF3146206839
:1019C000BDE8F0410122FFF751BFA08A401EA0826E
:1019D000BDE8F08131462068FFF729FF0028F7D0E5
:1019E000A08A70B1618A6068415C2068FFF7B0FF2F
:1019F000608A401C80B26082A1898842E5D36582FA
:101A0000E3E7002231462068FFF730FF206A002814
:101A1000DED0BDE8F0410047174916484FF4806218
:101A2000086001F12800486000F5806088608A81C4
:101A3000CA81002008824882C8820883488388823D
:101A4000C8610862486201F628010C4B0B6001F185
:101A500028034B6001F585638B608A81CA81088207
:101A60004882C882088348838882C86108624862C5
:101A70007047000000380140CC03002000440040C3
:101A8000FEE700000FB4054B10B503A9044A029805
:101A900000F096FA10BC5DF814FB0000912C0008D1
:101AA000E80200200FB4084B10B504A902AA03985D
:101AB00000F086FA044602A9002000F018FE204635
:101AC00010BC5DF814FB0000EF26000802E008C817
:101AD000121F08C1002AFAD170477047002001E0A8
:101AE00001C1121F002AFBD1704700002DE9FF5FE2
:101AF00082B00021DDE90430020DDDF840B003437F
:101B000018D044F61050A2F2FF3242431514119837
:101B100001281FD0A5EB0B00401C5FEA000A4FF024
:101B200000064E4FDFF83891B046504615D5CAF141
:101B3000000413E0119801244AA3012801D16FEA9F
:101B40000B010298119AC0E90031C0E9024206B0C7
:101B5000BDE8F09FCBF10000DFE704460021404ADA
:101B6000491842EB0450CDE9001012E0E00707D01D
:101B700032463B4640464946FEF712FD80468946BE
:101B800032463B4610461946FEF70AFD06460F460A
:101B90006410002CEAD1DDE90401DDE90023BAF18B
:101BA000000F06DAFEF7FCFC42464B46FEF7F8FC57
:101BB00005E0FEF767FD42464B46FEF763FD04462F
:101BC0000E460022284BFEF7E5FD03D84FF0FF300C
:101BD000014607E00022254B20463146FEF70EFB6A
:101BE000FEF7BFFD102409E0002C0ADB0A220023C7
:101BF000FEF7F0FB039B30321A55641E50EA0102D7
:101C0000F2D1641C039AC4F111031444119A012AFD
:101C100003D0012208430DD10AE0084304D000207C
:101C20004FF0110B119072E7A3EB0B056D1E0DE049
:101C30005B4504DD4FF0000205F1010504E003DA25
:101C40004FF00002A5F10105002AECD0029811998D
:101C5000C0E90231C0E9004579E700000000144006
:101C60000000F03F300000000000F0430000E03FC3
:101C700070B592B00E460446402102A8FEF78DFAD8
:101C80000CA5402102A8FEF788FA04F14000CDE936
:101C9000005023462A4608A102A8FFF703FF02A826
:101CA000FEF798FA024602A93046FEF75DFA12B036
:101CB00070BD00005C00000025732225732573228F
:101CC0003A25732C000000002DE9F047BCB08A468D
:101CD00081461F469046C82101A8449DFEF75DFA43
:101CE000202133A8FEF759FA4846FEF773FA044656
:101CF0005046FEF76FFA04444046FEF76BFA204464
:101D0000C01C80B2C82803D300203CB0BDE8F087D7
:101D1000C82101A8FEF741FA3CA1D1E90001CDE9B3
:101D200001014846FEF756FA064601A8FEF752FAA8
:101D300001AC204432464946FEF716FA01A8FEF7E8
:101D400049FA35A120440A6802604A68426009895C
:101D500001815046FEF73EFA064601A8FEF73AFA20
:101D6000204432465146FEF7FFF901A8FEF732FA49
:101D70002CA120440A6802604A68426009890181F6
:101D80004046FEF727FA064601A8FEF723FA20444C
:101D900032464146FEF7E8F901A8FEF71BFA24A1F6
:101DA00020440A680260496841607021017201A8FC
:101DB000FEF710FA21A120440988018039218170A1
:101DC0003846FEF707FA044601A8FEF703FA014673
:101DD00033A8009023463A4601A800F06FFF202464
:101DE000002133AA16A30846565C03EB1616367874
:101DF0002E54565C401C06F00F06491C9E5D2E5466
:101E0000401CA142F0DB01207FE70000636C6965A4
:101E10006E744964000000006465766963654E6114
:101E20006D65000070726F647563744B65790000B6
:101E300074696D657374616D700000003738390026
:101E400030313233343536373839414243444546F0
:101E5000000000002DE9F04190B088460446402182
:101E60006846FEF79AF92068FEF76FFA02460B46BD
:101E700048A16846FFF716FE6846FEF7ABF9024632
:101E800069464648FEF770F940216846FEF785F935
:101E90006068FEF75AFA02460B463EA16846FFF715
:101EA00001FE6846FEF796F902463C4869468030D6
:101EB000FEF75AF940216846FEF76FF938A16846E7
:101EC000A268FFF7EFFD6846FEF784F9024669460F
:101ED0003448FEF749F940216846FEF75EF9D4E937
:101EE000042331A16846FFF7DDFD6846FEF772F96D
:101EF00002462C4869468030FEF736F94021684694
:101F0000FEF74BF9A069FEF720FA02460B4621A125
:101F10006846FFF7C7FD6846FEF75CF9024669466A
:101F20002348FEF721F940216846FEF736F94FF4C1
:101F300080612048FEF731F9184E00241D4F403EC5
:101F400006EBC4106946FFF793FE6846FEF742F9B8
:101F500005461848FEF73EF938442A466946FEF71A
:101F600003F940216846FEF718F9641CE4B2052C19
:101F7000E6D3104A1049A2F58060FFF793FD0F48A1
:101F8000FEF728F902460D494046FEF7EDF810B07D
:101F9000BDE8F081252E32660000000080000020A0
:101FA0002564000080010020252E326C66000000B0
:101FB000800200201C180020543200081C1400204D
:101FC0002DE9FF4F95B09B468946064600250FE256
:101FD000252877D100242746F84A0121059400E0FE
:101FE000044316F8013F203B01FA03F01042F7D1F9
:101FF00030782A2811D06FF02F033078A0F130020A
:10200000092A16D8059A44F0020402EB820203EB77
:1020100042021044761C0590EFE759F8042B059214
:10202000002A03DA504244F40054059044F00204BC
:10203000761C30782E2816D116F8010F44F00404CF
:102040002A280DD06FF02F023078A0F13003092B31
:1020500009D807EB870302EB4303C718761CF3E7A5
:1020600059F8047B761C30786C280FD006DC4C289D
:1020700017D068280DD06A2814D104E0742810D035
:102080007A280FD10DE044F400140AE044F48014DF
:1020900001E044F440147278824202D104F58014C5
:1020A000761C761C307866280BD013DC582877D045
:1020B00009DC002875D04528F6D04628F4D04728FA
:1020C0001AD19DE118E0632835D0642879D06528BD
:1020D00012D195E1702873D008DC6728F1D0692807
:1020E0006FD06E280DD06F2806D1B5E073282CD0A4
:1020F000752875D0782874D05A46179990476D1C6A
:1021000075E1C4F30250022809D003280DD0D9F894
:10211000001004280DD00D6009F1040967E1D9F819
:102120000010EA17C1E90052F6E7D9F800100D8057
:10213000F2E70D70F0E719F8041B8DF8001000208D
:102140008DF80100EA46012003E059F804AB4FF096
:10215000FF3061074FF0000102D40DE008F10101EA
:102160008846B9420FDA8045F8DB1AF808100029D2
:10217000F4D108E008F1010188468142FADB1AF83F
:1021800008100029F6D105985B46A0EB0807214608
:102190003846179A00F094FA284400EB080507E047
:1021A0004DE029E10DE01AF8010B5A4617999047C6
:1021B000B8F10108F7D25B4621463846179A13E179
:1021C00042E00A220092C4F302524FF0000A022AAF
:1021D00008D059F804CB032A4FEAEC710AD00DE07D
:1021E00029E02AE009F1070121F00702F2E802C123
:1021F000914609E00FFA8CFC4FEAEC71042A03D1F6
:102200004FFA8CFC4FEAEC71002907DA0A460021EC
:10221000DCF1000C61EB02012D2202E0220504D565
:102220002B228DF80420012203E0E20701D02022B6
:10223000F7E7904659E00A2102E010220DE0102154
:102240004FF0000A00910BE010224FF0000A44F01A
:1022500004040827009203E008224FF0000A0092CD
:10226000C4F30252022A05D059F804CB0021032AF4
:1022700008D009E009F1070121F00702F2E802C1E4
:10228000914605E01FFA8CFC042A01D10CF0FF0CEA
:102290004FF00008220728D5702806D0009B83F055
:1022A000100353EA0A0305D00EE040228DF8042003
:1022B000012208E05CEA010206D030228DF80420F9
:1022C0008DF8050002229046009B83F0080353EA34
:1022D0000A030AD15CEA010201D1620705D5302266
:1022E0008DF804204FF001087F1E582804D034A038
:1022F00003900EA802900DE036A0F9E75346604621
:10230000009AFEF767F884460398825C0298401EA4
:10231000029002705CEA0100F0D1029806A9081A46
:1023200000F1200A600702D524F4803400E0012780
:10233000574502DDA7EB0A0000E0002000EB0A0190
:10234000009005984144401A0590E00306D45B468E
:102350002146179A059800F0B3F90544002706E0D6
:1023600001A85A46C05D179990476D1C7F1C4745D0
:10237000F6DBE0030CD55B462146179A059800F082
:102380009FF9054404E030205A46179990476D1C88
:102390000099481E00900029F5DC08E00298029997
:1023A0005A460078491C0291179990476D1CBAF162
:1023B0000001AAF1010AF1DC65E100000928010031
:1023C00030313233343536373839616263646566AB
:1023D000000000003031323334353637383941426D
:1023E000434445460000000000F058F90544761CBF
:1023F000307800287FF4ECAD19B02846BDE8F08FA6
:10240000620700D4062709F1070222F0070CFCE856
:102410000223E14603F000485FEA080C02D00FF205
:10242000702C0DE05FEA045C02D50FF2682C07E027
:102430005FEAC47C02D00FF2602C01E0AFF2700CB6
:102440004FF0FF3823F00043CDF850C065280CD082
:1024500006DC452809D046281DD047283DD13DE05F
:10246000662818D067287ED138E00021112F01DBC3
:10247000112000E0781CCDE9000106A90EA8FFF7A5
:1024800035FBDDE90F010E9A03910021009207F15F
:10249000010A04914DE04FF000400097CDE9011092
:1024A00006A90EA8FFF722FBDDE90F0203920E9B9F
:1024B00011990022DDF80CA00093049211B9791C47
:1024C00000EB010AB7EB0A0004D4C0F1FF3007F1BA
:1024D000010A0490AAEB0700019044E0012F00DA02
:1024E00001270021112F01DD112000E03846CDE940
:1024F000000106A90EA8FFF7F9FADDE90F010E9A0F
:102500000391002104910092BA4621070CD403994B
:10251000514500DA8A46BAF1010F05DD009AAAF1A9
:102520000101515C302908D0B84202DA10F1040FE1
:1025300006DA0121CDE9011015E0AAF10101E9E770
:10254000002805DC049901440491AAEB000102E093
:10255000411C514500DD8A460499401A401C0190F7
:102560004FF000400290200704D40198504501DB51
:10257000CDF8048000208DF84F0002980DF14F0730
:10258000B0F1004F25D02B200E9002984FF002089A
:1025900000280CDA404202902D200E9007E00A211C
:1025A0000298FDF701FF3031029007F8011DB8F1E4
:1025B0000001A8F10108F2DC02980028EFD1791E91
:1025C0000E980870307800F0200040F0450007F8C1
:1025D000020D12A8C01B00F107081498007800B182
:1025E000012000EB0A01019801EBE07105984144DC
:1025F000401A401E0590E00306D45B462146179A18
:10260000059800F05DF805441498007818B15A4612
:10261000179990476D1CE00324D55B462146179A15
:10262000059800F04DF805441CE00498002807DBED
:10263000DDE90301884203DD0098405C179901E061
:10264000179930205A469047049805F10105401C1F
:1026500004900198401E019004D12E205A461799EB
:1026600090476D1CBAF10001AAF1010ADDDC05E01A
:1026700017F8010B5A46179990476D1CB8F10001E5
:10268000A8F10108F4DC5B462146179A0598ABE6F1
:102690002D0000002B000000200000002DE9F0417B
:1026A000044600251E461746880404D405E0394632
:1026B0002020B0476D1C641EF9D52846BDE8F08186
:1026C0002DE9F041044600251E469046C80301D579
:1026D000302700E02027880404D505E0414638462D
:1026E000B0476D1C641EF9D52846BDE8F0810A6824
:1026F000531C0B6010707047042807D200EB400198
:10270000054800EB81004178012901D00020704785
:1027100000214170012070479C03002010B5002863
:1027200011D0012800D10220012181F31088064C2C
:1027300060600020207080F3108800BF00F05CF81B
:1027400020780128FAD110BD0000002070B506469F
:10275000284800EB06142068804705210025002842
:10276000207906EB460331D0052801D2217170BDD6
:102770000A2802D2401C207170BDA07A06EB4606E2
:10278000761C20B90120A072F0B200F077F92189FF
:102790000029F1D0E088884208D2401C80B2E08055
:1027A00021898842E8D1DB1CD8B20BE0E07A00280E
:1027B000E2D0207B401CC0B22073E17A8842DBD398
:1027C0002573F0B2BDE8704000F058B9052801D972
:1027D00021710BE010B1401E207107E0A07A0128A2
:1027E00004D19B1CA572D8B200F048F9E58025738E
:1027F00070BD0000EC020020704710B54FF440702F
:10280000FEF782FD00F014F900F038F8BDE8104042
:1028100000F0DEB87FB501210846FEF719FE154825
:102820001549002400684FF080454008B0FBF1F0E6
:102830004FF6FF71ADF80410ADF80000ADF806409A
:10284000ADF8024069462846FEF78AFF0121284676
:10285000FEF767FF1C208DF80C0004208DF80D009A
:102860008DF80E4001208DF80F0003A8FEF71AFD29
:102870007FBD0000D402002040420F0010B500F0E0
:1028800053F8BDE8104000F001B8000038B5012150
:102890004FF49A70FEF7E8FD03208DF80200042043
:1028A0008DF80300C402ADF8004069461A48FEF7EF
:1028B00035F90120ADF8000069461848FEF72EF9F9
:1028C0006011174DADF8000069462846FEF726F95D
:1028D000A000ADF8000069462846FEF71FF9082061
:1028E000ADF8000069460F48FEF718F96000ADF832
:1028F000000069462846FEF711F9ADF80040694628
:102900002846FEF70BF98020ADF8000069462846FE
:10291000FEF704F938BD0000001001400008014036
:10292000002001400014014030B51E4800216423FE
:102930008172C1720173A0380A46022500EB0214AD
:10294000521C23812571A172E172D2B221730A2A2D
:10295000F4D30387052180F83B10A0F8483080F8B5
:102960004B10A0F8583080F85B10A0F8683080F861
:102970006B100D4940F82C1B0C4940F81C1C0C49ED
:1029800040F80C1C0B4941600B4941610B49416205
:102990000B4941630B4941640B4941650B49416651
:1029A00030BD00008C030020C10F00081910000882
:1029B00045100008711000088510000899100008E3
:1029C000AD100008C1100008D5100008ED0F000878
:1029D00030B40020134A014600EB400402EB8403AC
:1029E00059609960597002F82410401CC0B2042844
:1029F000F2D30D484FF47A720068B0FBF2F0B0F1F8
:102A0000807F0CD220F07F424FF0E020521E4261C6
:102A1000064BF02283F8142D81610721016130BC3F
:102A2000FFF7F8BE9C030020D40200200FE000E076
:102A300038B5FEF7F1FFFEF731FA25208DF80000DA
:102A400000208DF8020001248DF803406846FEF74F
:102A500029FC26208DF800008DF802408DF80340F7
:102A60006846FEF71FFC38BD10B500242046FFF76E
:102A70006DFE641CE4B20A2CF8D310BD0549CA7A75
:102A80008854C87A401CC0B2C8720A2801D30020FA
:102A9000C87270478C030020FFF7E6BF7047000044
:102AA00010B5042805D30C4A0CA114A0FEF7EAFFC8
:102AB000FEE7012282F31088184A00EB400302EB84
:102AC00083004160816000214170012002F82300F1
:102AD00081F3108810BD00008B3000082E2E5C2E74
:102AE0002E5C557365725C6273705C7372635C62BA
:102AF00073705F74696D65722E6300004572726F4A
:102B0000723A2066696C652025732C2066756E63A9
:102B100074696F6E20257328290D0A009C0300201C
:102B200010B5042805D30B4A0BA113A0FEF7AAFF8A
:102B3000FEE7012282F31088174A00EB400302EB04
:102B40008300416081600021417002F8231081F30D
:102B5000108810BD7C3000082E2E5C2E2E5C557324
:102B600065725C6273705C7372635C6273705F74D5
:102B7000696D65722E6300004572726F723A20664D
:102B8000696C652025732C2066756E6374696F6EA1
:102B900020257328290D0A009C03002010B5FDF79D
:102BA000ADFF00280AD00021C182018341838068E3
:102BB000BDE810404FF48061FDF7EFBA10BD10B5CD
:102BC000FDF79CFF00281FD00246012080F31088EB
:102BD000538B002080F31088002B15D0148B936842
:102BE0001B5D0B70012181F31088118B491C89B288
:102BF0001183D389994200D31083508B401E508398
:102C0000002080F31088012010BDF8B515460E464F
:102C1000FDF774FF040034D0E06900B18047002064
:102C200025E0A189012282F31088A28AADF8002054
:102C3000002282F31088BDF800209142F2D9315C65
:102C4000238A6268D154012181F31088218A491CAA
:102C500089B22182A289914201D300212182A18AD5
:102C6000491CA182002181F31088401C80B2A84237
:102C7000D7D32068BDE8F840012240F22771FEF763
:102C8000F5BDF8BD13B5012201A9FFF7BEFF1CBDBC
:102C900010B50446C1B20020FFF7F4FF204610BD76
:102CA000FFF7ABFDFEF73CFBFDF78AFE4EF6602416
:102CB000FFF7A2FD2046FEF723FAF9E72DE9F041E0
:102CC000BCB01D46429E1746884604004DD0002FDA
:102CD0004BD0002E49D0402D47D840211BA8FDF7EE
:102CE0005CFA40212BA8FDF758FA2A4639461BA862
:102CF000FDF73AFA2A4639462BA8FDF735FA0021A6
:102D00001BA82BAA435C83F036034354535C83F027
:102D10005C035354491C4029F4DB684600F0BAF8C0
:102D2000684600F04DF940221BA9684600F06EF994
:102D300042462146684600F069F93146684600F08F
:102D400017F8684600F0A6F8684600F039F9402206
:102D50002BA9684600F05AF920223146684600F057
:102D600055F93146684600F003F83CB0BDE8F08103
:102D70007CB50D46044601686268480F40EAC2000F
:102D8000020E8DF80020020C8DF80120020A8DF849
:102D90000220C9008DF80300080E8DF80400080C0D
:102DA0008DF80500080A8DF806008DF807102078C8
:102DB00000F03F00382802D2C0F1380201E0C0F133
:102DC00078023349204600F021F90822694620465E
:102DD00000F01CF9A068000E2870A068000C687054
:102DE0002089000AA870207AE870E068000E287137
:102DF000E068000C6871A089000AA871207BE87166
:102E00002069000E28722069000C6872208A000A6E
:102E1000A872207CE8726069000E28736069000C5B
:102E20006873A08A000AA873207DE873A069000E69
:102E30002874A069000C6874208B000AA874207E96
:102E4000E874E069000E2875E069000C6875A08BD5
:102E5000000AA875207FE875206A000E2876206A8F
:102E6000000C6876208C000AA87694F82000E8769A
:102E7000A06E00280BD1606A000E2877606A000CF3
:102E80006877A08C000AA87794F82400E8777CBDC6
:102E9000B43100086C21FDF780B90000F0B5CBB06B
:102EA000002241AD00EB82039B6845F82230521CA2
:102EB000082AF7D300226B46404F01E0102A0AD2BD
:102EC00001EB82042668E47836BA26F0FF06264332
:102ED00043F822601AE003EB820454F8086C4FEACE
:102EE000764C8CEAF64C8CEA962C54F83C6C4FEA03
:102EF000F61E8EEAB64E8EEAD606664454F81CCC10
:102F000054F8404C6444344443F82240459C459E68
:102F10004FEAB41484EAF62484EA7666DDE9464C86
:102F200084EA0C04DDF814C104EA0C04DDF81CC1C9
:102F300084EA0C04344457F822C0489E6644344462
:102F400053F82260521C3444DDE9416C06EA0C0659
:102F5000DDE941CE4CEA0E0CDDF80CE1402A0CEA2A
:102F60000E0C46EA0C06DDF804C1DDF804E14FEA78
:102F7000BC0C8CEA7E3C8CEABE5C6644DDF810C179
:102F8000A4443444479E4896469E4796459ECDE9C4
:102F900045C6439E4496429E4396CDE9414E8DD30D
:102FA0005FF0000100EB810255F821409368491C55
:102FB000234493600829F5D34BB0F0BDB43000082A
:102FC00000210A4A0160C0E90112094AC260094AA7
:102FD0000261094A4261094A8261094AC261094A99
:102FE0000262094A426281667047000067E6096A28
:102FF00085AE67BB72F36E3C3AF54FA57F520E511A
:103000008C68059BABD9831F19CDE05B2DE9F0419E
:103010001400054688462FD0286800F03F0620445B
:10302000C6F140072860A04202D26868401C686070
:10303000B6B1BC4214D3A8193A462830FDF794F82B
:1030400005F128012846FFF729FFE41BB8440026B4
:1030500006E041462846FFF721FF08F14008403CC2
:10306000402CF6D2002C07D0A81922464146BDE8D4
:10307000F0412830FDF778B8BDE8F0816273705FE9
:10308000537461727454696D6572006273705F533A
:10309000746172744175746F54696D657200627306
:1030A000705F53746F7054696D657200103300085F
:1030B00004330008982F8A4291443771CFFBC0B582
:1030C000A5DBB5E95BC25639F111F159A4823F92F3
:1030D000D55E1CAB98AA07D8015B8312BE8531244C
:1030E000C37D0C55745DBE72FEB1DE80A706DC9B0D
:1030F00074F19BC1C1699BE48647BEEFC69DC10FB9
:10310000CCA10C246F2CE92DAA84744ADCA9B05CF4
:10311000DA88F97652513E986DC631A8C82703B0B7
:10312000C77F59BFF30BE0C64791A7D55163CA06C5
:1031300067292914850AB72738211B2EFC6D2C4DD1
:10314000130D385354730A65BB0A6A762EC9C281BF
:10315000852C7292A1E8BFA24B661AA8708B4BC255
:10316000A3516CC719E892D1240699D685350EF47F
:1031700070A06A1016C1A419086C371E4C77482736
:10318000B5BCB034B30C1C394AAAD84E4FCA9C5BAC
:10319000F36F2E68EE828F746F63A5781478C884FD
:1031A0000802C78CFAFFBE90EB6C50A4F7A3F9BEDF
:1031B000F27871C6800000000000000000000000EE
:1031C00000000000000000000000000000000000FF
:1031D00000000000000000000000000000000000EF
:1031E00000000000000000000000000000000000DF
:1031F0000000000041542B4D515454434F4E4E3D5E
:1032000025732C25732C2225737C73656375726579
:103210006D6F64653D332C7369676E6D6574686F9F
:10322000643D686D61637368613235362C74696D15
:10323000657374616D703D3738397C222C2225739B
:10324000262573222C222573222C25642C312C3028
:103250000000000041542B4D5154545055423D2222
:103260007B5C2269645C22203A205C223738395C1E
:10327000222C205C2276657273696F6E5C223A5C48
:1032800022312E305C222C205C22706172616D73C1
:103290005C22203A7B25737D2C5C226D6574686FFF
:1032A000645C223A5C227468696E672E6576656E8E
:1032B000742E70726F70657274792E706F73745C97
:1032C000227D222C3531322C322C302C302C222FE6
:1032D0007379732F6131324A376F4C564D70462FD8
:1032E00064657630322F7468696E672F6576656E17
:1032F000742F70726F70657274792F706F7374228F
:103300002C3300004D51545420444C3A000000002E
:103310004D51545420444953434F4E4E454354005D
:103320004033000800000020EC02000008080008FC
:10333000C8330008EC020020743B0000DC1A0008CF
:103340000120256666A441D42342322334404380C1
:103350003F00122F496E646F6F7254656D70657215
:103360006174757265023F3000113052656C617492
:1033700069766548756D6964697479093E80000EE7
:10338000335374697272696E675370656564093E80
:1033900080000938576F726B54696D65093E80086B
:1033A0000F7052656D61696E696E67576174657201
:1033B0008045020406082D010203040415060708CF
:0833C0000984A24A04791431CA
:0400000508000131BD
:00000001FF
